:1000000000308A00F6290000FF00030E8301A100E2
:100010007F08A0000A08A8008A01A00E0408A20018
:100020007708A3007808A4007908A5007A08A6003C
:100030007B08A700831383128B1E20280B195C29D1
:10004000220884002308F7002408F8002508F90096
:100050002608FA002708FB0028088A00210E8300E2
:10006000FF0E7F0E09000A108A100A118207283439
:100070000C34013406340A108A100A1182074D34F8
:1000800054342034473449344F3453344534523493
:100090000A3400340A108A100A1182075434693471
:1000A00065346D3470346F343A342034253475340B
:1000B0003A3425347534203400343D08F8013C02CC
:1000C000031865283C08F7007128F7010830BE00C6
:1000D000BC0DF70D3D0877020318F700F80DBE0BB5
:1000E00068280034F701F801390803103A18F707B7
:1000F000F70CF80CBA18F707F70CF80C3A19F707D1
:10010000F70CF80CBA19F707F70CF80C3A1AF707BE
:10011000F70CF80CBA1AF707F70CF80C3A1BF707AC
:10012000F70CF80CBA1BF707F70CF80C0034F13099
:10013000660086150000861400000608060E0F39BA
:10014000C40086100000861400000608060E0F3951
:10015000C300861001306600440EF700F030F7054A
:1001600077084304F8000034440EF039F7000F30EC
:1001700006057704860000008614BE288610003429
:10018000061197207808C300C31BC128411C061123
:10019000411806150000861100008610420EC300AB
:1001A0000F30C3054308C400B42042080F39C30010
:1001B000C400B42000343E0BDE28E1284030BF00EC
:1001C000E228BF0101303D02BF073F088038C00070
:1001D000C1014008C200C02000343D3084008313B8
:1001E0000008031901290130F800F701F70BF62880
:1001F000F80BF5284A30F700F70BFC28FF28800B96
:10020000F32800343C080C3A03190D29063A031967
:100210001529023A03191B292029C1010130C20006
:10022000C0200230BD00ED2026290130BD00023083
:10023000BE00DB202629C1011030C200C0202629C3
:100240000130C1003C08C200C020262900347808D3
:100250003A08BC006430BD005D207708BA00780819
:100260003030031D3A29BB1C4129BB1941293B1AD7
:1002700020303D29BB113B123B14F8077808BC0025
:1002800002213A08BC000A30BD005D207708BA00A0
:1002900078083030031D5229BB1956293B1C5629BA
:1002A0003B1A2030F8077808BC0002213030BA072A
:1002B0003A08BC0002210034B80107308100AF0ABF
:1002C000AE0AB00A2F08233C031D9C29AF01851CF0
:1002D00080292D10AA012B08AC002C08BC00053089
:1002E000BD005D207808AC002C08B9000530BA00CC
:1002F000722005307807AB002B083C3C031CAB0197
:10030000051C98292D10AA01AB0803199829013062
:100310002B02AC002C08BC000530BD005D20780825
:10032000AC002C08B9000530BA0072207808AB0088
:10033000051D9C290130AD063008413C031DAE2946
:10034000AD1CAE293808023C031CAB29B80AB00129
:1003500008308506AE29B801AD1085152E087D3C04
:10036000031DF329AE012D1CC929AB08031DBF29AC
:10037000AA08031DBF29AA012D10AD14C929AA0876
:10038000031DC8293B30AA00AB08031DAB03C929D4
:10039000AA030130BD00BE00DB20B90139083B20B3
:1003A000B90AF700BC0002210A303902031DCE2928
:1003B000B90139084A20B90AF700BC000221083007
:1003C0003902031DD9292B08BA001B30BB00272195
:1003D0003A30BC0002212A08BA001B30BB0027219A
:1003E0002030BC0002210B118A11202884018313C4
:1003F0001F30830507309F00AA01AB01AC012D100F
:10040000AD10AE01AF01B0010730650001306600EC
:10041000061186118610A9018B1BA9178B130F30AB
:10042000BD00ED20A91B8B170130B1003108033C42
:10043000031C2E2AA9018B1BA9178B130330C400A0
:10044000B420A91B8B17A9018B1BA9178B1305308F
:10045000BD00ED20A91B8B17B10A162AA9018B1B21
:10046000A9178B130230C400B420A91B8B17B1014C
:100470003108033C031C4B2A31083320B200A90188
:100480008B1BA9178B13C1013208C200C020A91B06
:100490008B17B10A382A83160108C0390438810045
:1004A0000730831281008B16C0308B048515572AC4
:0204B0006300E7
:02400E00693F08
:00000001FF
;PIC16F628A
