:1000000000308A00022A0000FF00030E8301A100D5
:100010007F08A0000A08A8008A01A00E0408A20018
:100020007708A3007808A4007908A5007A08A6003C
:100030007B08A700831383128B1E20280B196029CD
:10004000220884002308F7002408F8002508F90096
:100050002608FA002708FB0028088A00210E8300E2
:10006000FF0E7F0E09000A108A100A118207283439
:100070000C34013406340A108A100A1182074D34F8
:1000800054342034473449344F3453344534523493
:100090000A3400340A108A100A1182075434693471
:1000A00065346D3470346F343A3420342534303450
:1000B000323475343A3425343034323475342034A3
:1000C00000343D08F8013C02031869283C08F70099
:1000D0007528F7010830BE00BC0DF70D3D0877020A
:1000E0000318F700F80DBE0B6C280034F701F80177
:1000F000390803103A18F707F70CF80CBA18F70785
:10010000F70CF80C3A19F707F70CF80CBA19F707BF
:10011000F70CF80C3A1AF707F70CF80CBA1AF707AD
:10012000F70CF80C3A1BF707F70CF80CBA1BF7079B
:10013000F70CF80C0034F1306600861500008614C8
:1001400000000608060E0F39C40086100000861451
:1001500000000608060E0F39C30086100130660045
:10016000440EF700F030F70577084304F800003438
:10017000440EF039F7000F300605770486000000C2
:100180008614C2288610003406119B207808C3000C
:10019000C31BC528411C0611411806150000861115
:1001A00000008610420EC3000F30C3054308C40090
:1001B000B82042080F39C300C400B82000343E0BF9
:1001C000E228E5284030BF00E628BF0101303D02AB
:1001D000BF073F088038C000C1014008C200C420EA
:1001E00000343D30840083130008031905290130D1
:1001F000F800F701F70BFA28F80BF9284A30F70056
:10020000F70B00290329800BF72800343C080C3A2F
:1002100003191129063A03191929023A03191F294A
:100220002429C1010130C200C4200230BD00F120E8
:100230002A290130BD000230BE00DF202A29C10179
:100240001030C200C4202A290130C1003C08C2007D
:10025000C4202A29003478083A08BC006430BD0064
:1002600061207708BA0078083030031D3E29BB1C96
:100270004529BB1945293B1A20304129BB113B12A6
:100280003B14F8077808BC0006213A08BC000A3085
:10029000BD0061207708BA0078083030031D562968
:1002A000BB195A293B1C5A293B1A2030F8077808F9
:1002B000BC0006213030BA073A08BC0006210034E1
:1002C00007308100AF0AAE0AB00A2F08233C031D95
:1002D000A729AF01851C84292D188429AA012B0880
:1002E000AC002C08BC000530BD0061207808AC00D3
:1002F0002C08B9000530BA00762005307807AB002D
:100300002B083C3C031CAB01051C9D292D189D2985
:10031000AA01AB0803199D2901302B02AC002C085F
:10032000BC000530BD0061207808AC002C08B90085
:100330000530BA0076207808AB00051DA729AB0868
:10034000031DA529AA080319A7290130AD06300805
:10035000413C031DB929AD1CB9293108033C031CDC
:10036000B629B10AB00108308506B929B101AD102E
:1003700085152E087D3C031DFF29AE012D1CD529B6
:10038000AA08031DCA29AB080319C929AB033B30CE
:10039000AA00CB29AA03AB08031DD529AA08031D6F
:1003A000D5292D10B0018511AD140130BD00BE005E
:1003B000DF20B90139083B20B90AF700BC0006214B
:1003C0000A303902031DDA29B90139084A20B90A6D
:1003D000F700BC00062108303902031DE5292B086F
:1003E000BA000130BB002B213A30BC0006212A089C
:1003F000BA000130BB002B212030BC0006210B11BC
:100400008A112028840183131F30830507309F0041
:10041000AA01AB01AC012D10AD10AE01AF01B001CE
:10042000B1010730650001306600061186118610A3
:10043000A9018B1BA9178B130F30BD00F120A91B3D
:100440008B170130B2003208033C031C3B2AA90180
:100450008B1BA9178B130330C400B820A91B8B1763
:10046000A9018B1BA9178B130530BD00F120A91B17
:100470008B17B20A232AA9018B1BA9178B130230F1
:10048000C400B820A91B8B17B2013208033C031C1F
:10049000582A32083320B300A9018B1BA9178B13EC
:1004A000C1013308C200C420A91B8B17B20A452A18
:1004B00083160108C0390438810007308312810097
:0C04C0008B16C0308B048515642A630085
:02400E00693F08
:00000001FF
;PIC16F628A
